:1000000045C0000060C000005EC000005CC0000091
:100010005AC0000058C0000056C0000054C0000084
:1000200052C0000050C000004EC000004CC0000094
:100030004AC0000048C0000046C0000044C00000A4
:1000400042C0000040C000003EC000003CC00000B4
:100050003AC0000038C0000036C0000034C00000C4
:1000600032C0000030C000005CC000002CC00000A6
:100070002AC0000028C0000026C0000024C00000E4
:1000800022C0000020C000001EC0000011241FBEBE
:10009000CFEFD0E4DEBFCDBF11E0A0E0B1E0E0EAF9
:1000A000F2E000E00BBF02C007900D92A230B10752
:1000B000D9F721E0A2E0B1E001C01D92A730B2075C
:1000C000E1F7D0D0EBC09CCF2FE936E841E02150DA
:1000D00030404040E1F700C000008823C1F090E0CC
:1000E000289A2FE738E341E0215030404040E1F7C3
:1000F00000C0000015B82FE738E341E02150304040
:100100004040E1F700C000009F5F9813E9CF0895D9
:100110001092B9008CE08093B80085E08093BC0019
:1001200008951F920F920FB60F9211240BB60F92E3
:100130002F933F934F935F936F937F938F939F93EF
:10014000AF93BF93EF93FF938091B900887F803284
:1001500049F140F48031B9F08831E1F0883009F09C
:1001600055C00AC0803409F446C0883509F447C038
:10017000883209F04BC01CC082E38093BB0085E845
:100180008093BC0043C083E38093BB0085E88093E9
:10019000BC003CC0809104018093BB0085E8809343
:1001A000BC0034C08FE090DF85E98093BC002EC096
:1001B000809100018823D9F0809102019091030180
:1001C000892B21F485E98093BC0007C0809106014A
:1001D0008093BB0085E88093BC00809102019091E0
:1001E0000301019790930301809302010FC085EAF8
:1001F0008093BC000BC085E88093BC0007C0809151
:10020000BB008093050185E98093BC00FF91EF91CD
:10021000BF91AF919F918F917F916F915F914F911E
:100220003F912F910F900BBE0F900FBE0F901F901C
:100230001895509303014093020180930401609349
:10024000060181E08093000185EA8093BC00089557
:10025000809304011092000185EA8093BC00809194
:100260000501089581E084B915B852DF789441E022
:1002700050E067E480E2DDDF87EA91E60197F1F77D
:1002800000C0000080E2E4DF80910501873419F4AA
:1002900085E01ADFECCF8AE017DFE9CFF894FFCFD3
:0202A00001005B
:00000001FF
