S01200006932635F636F6E6669672E737265633F
S113000045C000004BC0000049C0000047C00000CC
S113001045C0000043C0000041C000003FC00000D4
S11300203DC000003BC0000039C0000037C00000E4
S113003035C0000033C0000031C000002FC00000F4
S11300402DC000002BC0000029C0000027C0000004
S113005025C0000023C0000021C000001FC0000014
S11300601DC000001BC0000019C0000017C0000024
S113007015C0000013C0000011C000000FC0000034
S11300800DC000000BC0000009C0000011241FBEF9
S1130090CFEFD0E4DEBFCDBF83D0A4C0B1CF78947E
S11300A01092B9008CE08093B80084E08093BC0087
S11300B00895ECEBF0E0108294EA90839081992308
S11300C0ECF79091B900987F9830A1F48093BB002D
S11300D084E88093BC00ECEBF0E080818823ECF7AB
S11300E09091B900987F983139F081E0903429F4E7
S11300F080E0089581E0089580E00895DACF0895BE
S11301008093BB0084E88093BC00ECEBF0E080813A
S11301108823ECF79091B900987F81E0983209F434
S113012080E0089584E88093BC00ECEBF0E08081EB
S11301308823ECF78091BB000895882391F090E028
S1130140289AEFE1FEE43197F1F700C0000015B8FA
S1130150EFE1FEE43197F1F700C000009F5F9813D0
S1130160EFCF0895CF93DF93D82FC62F82E3A1DF7B
S11301708D2FC6DF8C2FC4DF84E98093BC00DF9110
S1130180CF910895CF93C82F82E393DF8C2FB8DFEC
S113019083E3B4DFC7DF94E99093BC00CF91089563
S11301A0CF9381E084B915B82FEF84E39CE021500C
S11301B080409040E1F700C0000071DF65E580E217
S11301C0D1DF60E080E2DEDFC82F80E0B6DFC53536
S11301D019F482E3B2DF02C081E0AFDF80E090E097
S10B01E0CF910895F894FFCFBC
S9030000FC
