:1000000096C00000B1C00000AFC00000ADC000004D
:10001000ABC00000A9C00000A7C00000A5C0000040
:10002000A3C00000A1C000009FC000009DC0000050
:100030009BC0000099C0000097C0000095C0000060
:1000400093C0000091C000008FC000008DC0000070
:100050008BC0000089C0000087C0000085C0000080
:1000600083C0000081C00000BAC000007DC0000055
:100070007BC0000079C0000077C0000075C00000A0
:1000800073C0000071C000006FC000000F01590173
:1000900059015901590159015901590116015901D3
:1000A0005901590159015901590159011D015901BC
:1000B00059015901590159015901590125015901A4
:1000C0005901590159015901590159012901590190
:1000D0005901590159015901590159015901590150
:1000E0005901590159015901590159015901590140
:1000F0005901590159015901590159014801590141
:10010000590159015901590159015901590159011F
:100110005901590159015901590159015201590116
:100120005901590159015901590159014C01112431
:100130001FBECFEFD0E4DEBFCDBF11E0A0E0B1E045
:10014000E2E2F6E000E00BBF02C007900D92A230A1
:10015000B107D9F721E0A2E0B1E001C01D92A730BC
:10016000B207E1F7D6D05BC24BCF2FE936E841E0CA
:10017000215030404040E1F700C000008823C1F02A
:1001800090E0289A2FE936E841E021503040404085
:10019000E1F700C0000015B82FE936E841E0215032
:1001A00030404040E1F700C000009F5F9813E9CF66
:1001B00008951092B9008CE08093B80085E0809398
:1001C000BC00089585EA8093BC0010920101089557
:1001D00085E98093BC0081E08093010108951F921E
:1001E0000F920FB60F9211240BB60F922F933F93DD
:1001F0004F935F936F937F938F939F93AF93BF932F
:10020000EF93FF938091B900887F90E0FC013897CD
:10021000E135F10508F04DC0EA5BFF4FFAC182E31A
:100220008093BB0085E88093BC0043C083E3809348
:10023000BB0085E88093BC003CC0809104018093A2
:10024000BB0085E88093BC0034C081E08EDFC0DF56
:1002500030C0809100018823C9F080910201909103
:100260000301892B11F4B4DF07C08091060180934C
:10027000BB0085E88093BC0080910201909103014E
:100280000197909303018093020113C09BDF11C07B
:1002900085E88093BC000DC08091BB008093050170
:1002A00097DF07C08091BB008093050183E05DDF8D
:1002B0008FDFFF91EF91BF91AF919F918F917F91D0
:1002C0006F915F914F913F912F910F900BBE0F90C7
:1002D0000FBE0F901F901895909101019923E1F3A3
:1002E000509303014093020180930401609306013F
:1002F00081E08093000166CF0895909101019923D8
:10030000E1F380930401109200015CDF809105010C
:100310000895CF93DF93CDB7DEB72C970FB6F8943F
:10032000DEBF0FBECDBF81E084B915B842DF78943F
:1003300041E050E067E480E2CFDF83EC99E0019791
:10034000F1F700C0000088E2D8DF898389E2D5DFB9
:100350008A838AE2D2DF8B838BE2CFDF8C838CE2CD
:10036000CCDF8D838DE2C9DF8E8319816A8170E0D5
:1003700080E090E05FD020E030E040E853E4BED081
:100380002BD0212F30E0620F731F7C876B871B817E
:100390006C8170E080E090E04DD020E030E040E8FB
:1003A00053E4ACD019D0212F30E0620F731F7A874D
:1003B00069871D816E8170E080E090E03BD020E095
:1003C00030E040E853E49AD007D0212F30E0620FAC
:1003D000731F78876F83B1CF70D088F09F5790F0EC
:1003E000B92F9927B751A0F0D1F0660F771F881F5A
:1003F000991F1AF0BA95C9F712C0B13081F077D0C1
:10040000B1E0089574C0672F782F8827B85F39F05E
:10041000B93FCCF3869577956795B395D9F73EF4B8
:1004200090958095709561957F4F8F4F9F4F089560
:10043000E89409C097FB3EF490958095709561957E
:100440007F4F8F4F9F4F9923A9F0F92F96E9BB2734
:100450009395F695879577956795B795F111F8CFB0
:10046000FAF4BB0F11F460FF1BC06F5F7F4F8F4F1B
:100470009F4F16C0882311F096E911C0772321F011
:100480009EE8872F762F05C0662371F096E8862FA9
:1004900070E060E02AF09A95660F771F881FDAF700
:1004A000880F9695879597F9089557FD9058440FB2
:1004B000551F59F05F3F71F04795880F97FB991FC3
:1004C00061F09F3F79F08795089512161306140680
:1004D000551FF2CF4695F1DF08C01616170618060D
:1004E000991FF1CF86957105610508940895E894E8
:1004F000BB2766277727CB0197F908950BD078C0E3
:1005000069D028F06ED018F0952309F05AC05FC06A
:100510001124EECFCADFA0F3959FD1F3950F50E0E1
:10052000551F629FF001729FBB27F00DB11D639FA5
:10053000AA27F00DB11DAA1F649F6627B00DA11D4B
:10054000661F829F2227B00DA11D621F739FB00DF1
:10055000A11D621F839FA00D611D221F749F332761
:10056000A00D611D231F849F600D211D822F762FFA
:100570006A2F11249F5750408AF0E1F088234AF0F7
:10058000EE0FFF1FBB1F661F771F881F9150504043
:10059000A9F79E3F510570F014C0AACF5F3FECF35E
:1005A000983EDCF3869577956795B795F795E7952F
:1005B0009F5FC1F7FE2B880F911D9695879597F940
:1005C000089597F99F6780E870E060E008959FEFD5
:1005D00080EC089500240A941616170618060906DA
:1005E000089500240A9412161306140605060895A9
:1005F000092E0394000C11F4882352F0BB0F40F431
:10060000BF2B11F460FF04C06F5F7F4F8F4F9F4F70
:100610000895EE0FFF1F0590F491E02D0994F894D2
:02062000FFCF0A
:020622000101D4
:00000001FF
