:1000000096C00000B1C00000AFC00000ADC000004D
:10001000ABC00000A9C00000A7C00000A5C0000040
:10002000A3C00000A1C000009FC000009DC0000050
:100030009BC0000099C0000097C0000095C0000060
:1000400093C0000091C000008FC000008DC0000070
:100050008BC0000089C0000087C0000085C0000080
:1000600083C0000081C00000BAC000007DC0000055
:100070007BC0000079C0000077C0000075C00000A0
:1000800073C0000071C000006FC000000F015B0171
:100090005B015B015B015B015B015B0116015B01C5
:1000A0005B015B015B015B015B015B011D015B01AE
:1000B0005B015B015B015B015B015B0125015B0196
:1000C0005B015B015B015B015B015B012A015B0181
:1000D0005B015B015B015B015B015B015B015B0140
:1000E0005B015B015B015B015B015B015B015B0130
:1000F0005B015B015B015B015B015B0149015B0132
:100100005B015B015B015B015B015B015B015B010F
:100110005B015B015B015B015B015B0153015B0107
:100120005B015B015B015B015B015B014D01112424
:100130001FBECFEFD0E4DEBFCDBF11E0A0E0B1E045
:10014000E8E9F3E000E00BBF02C007900D92A23097
:10015000B107D9F721E0A2E0B1E001C01D92A730BC
:10016000B207E1F7D8D016C14BCF1092B9008CE09E
:100170008093B80085E08093BC00089585EA809361
:10018000BC0010920101089585E98093BC0081E0D4
:100190008093010108952FE936E841E02150304075
:1001A0004040E1F700C000008823C1F090E0289AA9
:1001B0002FE936E841E0215030404040E1F700C0EF
:1001C000000015B82FE936E841E0215030404040AA
:1001D000E1F700C000009F5F9813E9CF08951F92D8
:1001E0000F920FB60F9211240BB60F922F933F93DD
:1001F0004F935F936F937F938F939F93AF93BF932F
:10020000EF93FF938091B900887F90E0FC013897CD
:10021000E135F10508F04FC0EA5BFF4FB5C082E35E
:100220008093BB0085E88093BC0045C083E3809346
:10023000BB0085E88093BC003EC0809104018093A0
:10024000BB0085E88093BC0036C081E090E0A3DF6E
:100250009BDF31C0809100018823C9F080910201A9
:1002600090910301892B11F48FDF07C08091060163
:100270008093BB0085E88093BC008091020190913F
:1002800003010197909303018093020114C076DF6C
:1002900012C085E88093BC000EC08091BB008093A3
:1002A000050172DF08C08091BB008093050183E0E7
:1002B00090E071DF69DFFF91EF91BF91AF919F9166
:1002C0008F917F916F915F914F913F912F910F90FF
:1002D0000BBE0F900FBE0F901F90189590910101CB
:1002E0009923E1F3509303014093020180930401A9
:1002F0006093060181E08093000140CF08959091C2
:1003000001019923E1F3809304011092000136DF8B
:10031000809105010895CF93DF93CDB7DEB728977D
:100320000FB6F894DEBF0FBECDBF81E084B915B81B
:100330001CDF789441E050E067E280E2CFDF83EC9D
:1003400099E00197F1F700C0000088E2D8DF8983C7
:1003500089E2D5DF8A838AE2D2DF8B838BE2CFDF2B
:100360008C8383EC99E00197F1F700C0000089814C
:100370002A8190E0922B98878F838B812C8190E04B
:10038000922B9E838D83DBCFEE0FFF1F0590F491A0
:08039000E02D0994F894FFCF61
:02039800010161
:00000001FF
