:1000000096C00000B1C00000AFC00000ADC000004D
:10001000ABC00000A9C00000A7C00000A5C0000040
:10002000A3C00000A1C000009FC000009DC0000050
:100030009BC0000099C0000097C0000095C0000060
:1000400093C0000091C000008FC000008DC0000070
:100050008BC0000089C0000087C0000085C0000080
:1000600083C0000081C00000BAC000007DC0000055
:100070007BC0000079C0000077C0000075C00000A0
:1000800073C0000071C000006FC000000F01580174
:1000900058015801580158015801580116015801DA
:1000A0005801580158015801580158011D015801C3
:1000B00058015801580158015801580125015801AB
:1000C0005801580158015801580158012A01580196
:1000D0005801580158015801580158015801580158
:1000E0005801580158015801580158015801580148
:1000F0005801580158015801580158014901580147
:100100005801580158015801580158015801580127
:10011000580158015801580158015801530158011C
:100120005801580158015801580158014D01112436
:100130001FBECFEFD0E4DEBFCDBF11E0A0E0B1E045
:10014000E4E0F6E000E00BBF02C007900D92AA3099
:10015000B107D9F721E0AAE0B1E001C01D92AF30AC
:10016000B207E1F7FFD04CC24BCF1092B90082E941
:100170008093B80085E08093BC00089585EA809361
:10018000BC0010920101089585E98093BC0081E0D4
:100190008093010108952FE936E841E02150304075
:1001A0004040E1F700C000008823C1F090E0289AA9
:1001B0002FE936E841E0215030404040E1F700C0EF
:1001C000000015B82FE936E841E0215030404040AA
:1001D000E1F700C000009F5F9813E9CF08951F92D8
:1001E0000F920FB60F9211240BB60F922F933F93DD
:1001F0004F935F936F937F938F939F93AF93BF932F
:10020000EF93FF938091B900887F90E0FC013897CD
:10021000E135F10508F04CC0EA5BFF4FEBC182E32A
:100220008093BB0085E88093BC0042C083E3809349
:10023000BB0085E88093BC003BC080910C0180939B
:10024000BB0085E88093BC0033C081E090E0A3DF71
:100250009BDF2EC0809100018823C9F080910A01A4
:1002600090910B01892B11F48FDF22C080910E0138
:100270008093BB0085E88093BC0080910A01909137
:100280000B01019790930B0180930A0111C076DF57
:100290000FC085E88093BC000BC08091BB008093A9
:1002A0000D0172DF05C08091BB0080930D016CDFF2
:1002B000FF91EF91BF91AF919F918F917F916F913E
:1002C0005F914F913F912F910F900BBE0F900FBEFA
:1002D0000F901F901895909101019923E1F350938D
:1002E0000B0140930A0180930C0160930E0181E0A1
:1002F0008093000143CF0895909101019923E1F388
:1003000080930C011092000139DF80910101882354
:10031000E1F380910D010895262F30E0322F22273E
:10032000282BB901759567957595679575956795AE
:1003300075956795882777FD8095982F6CD02091CB
:1003400002013091030140910401509105019ED0BA
:100350002091060130910701409108015091090157
:1003600095C00895CF93DF93CDB7DEB763970FB6EF
:10037000F894DEBF0FBECDBF81E084B915B8F5DEBD
:10038000789441E050E067E580E2A5DF80E2B4DFE9
:100390008F8388E2B1DF898383EC99E00197F1F7DD
:1003A00000C0000089E2A8DF8A836A818981B4DF06
:1003B000688779878A879B878AE29EDF8B8383ECB5
:1003C00099E00197F1F700C000008BE295DF8C8384
:1003D0006C818B81A1DF6C877D878E879F878CE204
:1003E0008BDF8D8383EC99E00197F1F700C000006B
:1003F0008DE282DF8E836E818D818EDF688B798BBB
:100400008A8B9B8B83EC99E00197F1F700C0000089
:10041000C0CFE89409C097FB3EF490958095709505
:1004200061957F4F8F4F9F4F9923A9F0F92F96E940
:10043000BB279395F695879577956795B795F111B5
:10044000F8CFFAF4BB0F11F460FF1BC06F5F7F4F52
:100450008F4F9F4F16C0882311F096E911C0772364
:1004600021F09EE8872F762F05C0662371F096E86D
:10047000862F70E060E02AF09A95660F771F881F3C
:10048000DAF7880F9695879597F908950BD078C07D
:1004900069D028F06ED018F0952309F05AC05FC0DB
:1004A0001124A2C07ED0A0F3959FD1F3950F50E008
:1004B000551F629FF001729FBB27F00DB11D639F16
:1004C000AA27F00DB11DAA1F649F6627B00DA11DBC
:1004D000661F829F2227B00DA11D621F739FB00D62
:1004E000A11D621F839FA00D611D221F749F3327D2
:1004F000A00D611D231F849F600D211D822F762F6B
:100500006A2F11249F5750408AF0E1F088234AF067
:10051000EE0FFF1FBB1F661F771F881F91505040B3
:10052000A9F79E3F510570F014C05EC05F3FECF329
:10053000983EDCF3869577956795B795F795E7959F
:100540009F5FC1F7FE2B880F911D9695879597F9B0
:10055000089597F99F6780E870E060E008959FEF45
:1005600080EC089500240A9416161706180609064A
:10057000089500240A941216130614060506089519
:10058000092E0394000C11F4882352F0BB0F40F4A1
:10059000BF2B11F460FF04C06F5F7F4F8F4F9F4FE1
:1005A000089557FD9058440F551F59F05F3F71F063
:1005B0004795880F97FB991F61F09F3F79F08795CA
:1005C0000895121613061406551FF2CF4695F1DF53
:1005D00008C0161617061806991FF1CF86957105E3
:1005E000610508940895E894BB2766277727CB0117
:1005F00097F90895EE0FFF1F0590F491E02D0994EF
:04060000F894FFCF9C
:0A0604000101D1221D416F12833A5B
:00000001FF
