S01200006932635F636F6E6669672E737265633F
S113000045C0000060C000005EC000005CC000008D
S11300105AC0000058C0000056C0000054C0000080
S113002052C0000050C000004EC000004CC0000090
S11300304AC0000048C0000046C0000044C00000A0
S113004042C0000040C000003EC000003CC00000B0
S11300503AC0000038C0000036C0000034C00000C0
S113006032C0000030C000002EC000002CC00000D0
S11300702AC0000028C0000026C0000024C00000E0
S113008022C0000020C000001EC0000011241FBEBA
S1130090CFEFD0E4DEBFCDBF11E0A0E0B1E0E0E8F7
S11300A0F6E000E00BBF02C007900D92AA30B10742
S11300B0D9F721E0AAE0B1E001C01D92A031B20756
S11300C0E1F71CD0DBC29CCF78948FEF8093B9000A
S11300D08CE08093B80084E08093BC00089580E0B5
S11300E091E09F938F9325D00F900F900895809166
S11300F0B900887F883009F0F2CF0895CF93DF9359
S113010086E091E09F938F9314D0DEDFCCEBD0E0B8
S113011084EA8883ECDF8CE08093BB0084E88883E6
S113012084E988830F900F9080E090E0DF91CF9175
S11301300895CF93DF93CDB7DEB7FE013596619175
S11301407191AF0180910C0190910D0103D0DF9169
S1130150CF9108952F923F924F925F926F927F9228
S11301608F929F92AF92BF92CF92DF92EF92FF92C3
S11301700F931F93CF93DF93CDB7DEB72C970FB6B2
S1130180F894DEBF0FBECDBF7C016B018A01FC0178
S113019017821682838181FFB0C1CE0101964C0182
S11301A0F7019381F60193FD859193FF81916F018E
S11301B0882309F49EC1853239F493FD859193FF18
S11301C081916F01853221F4B70190E0C7D1E8CF66
S11301D0512C312C20E02032A0F48B3269F030F421
S11301E0803259F0833269F420612CC08D3239F0A9
S11301F0803339F4216026C02260246023C0286043
S113020021C027FD27C030ED380F3A3078F426FF9F
S113021006C0FAE05F9E300D1124532E13C08AE00D
S1130220389E300D1124332E20620CC08E3221F4FE
S113023026FD5FC1206406C08C3611F4206802C01C
S1130240883641F4F60193FD859193FF81916F0106
S11302508111C1CF982F9F7D9554933028F40C5F62
S11302601F4FFFE3F9830DC0833631F0833771F0FC
S1130270833509F057C021C0F801808189830E5F5E
S11302801F4F44244394512C540114C03801F2E00C
S11302906F0E711CF801A080B18026FF03C0652D8C
S11302A070E002C06FEF7FEFC5012C874CD12C01A9
S11302B083012C852F77222E16C03801F2E06F0EB1
S11302C0711CF801A080B18026FF03C0652D70E089
S11302D002C06FEF7FEFC5012C872AD12C012C853A
S11302E02068222E830123FC19C0832D90E0481638
S11302F05906A0F4B70180E290E030D13A94F5CFEA
S1130300F50127FC859127FE81915F01B70190E0FB
S113031025D131103A94F1E04F1A51084114510497
S113032079F7DEC0843611F0893631F5F80127FFFC
S113033007C060817181828193810C5F1F4F08C067
S113034060817181882777FD8095982F0E5F1F4FFC
S11303502F76B22E97FF09C0909580957095619580
S11303607F4F8F4F9F4F2068B22E2AE030E0A401C8
S113037027D1A82EA81843C0853729F42F7EB22E82
S11303802AE030E025C0F22FF97FBF2E8F36C1F06E
S113039018F4883579F0ADC0803719F0883721F02A
S11303A0A8C02F2F2061B22EB4FE0DC08B2D846007
S11303B0B82E09C024FF0AC09F2F9660B92E06C02C
S11303C028E030E005C020E130E002C020E132E066
S11303D0F801B7FE07C060817181828193810C5F4F
S11303E01F4F06C06081718180E090E00E5F1F4F57
S11303F0A401E6D0A82EA818FB2DFF77BF2EB6FEC9
S11304000BC02B2D2E7FA51450F4B4FE0AC0B2FCF1
S113041008C02B2D2E7E05C07A2C2B2D03C07A2CE0
S113042001C0752C24FF0DC0FE01EA0DF11D808171
S1130430803311F4297E09C022FF06C0739473949B
S113044004C0822F867809F0739423FD12C020FF24
S113045006C05A2C731418F4530C5718732C7314C5
S113046060F4B70180E290E02C8778D073942C85F7
S1130470F6CF731410F4371801C0312C24FF11C0C7
S1130480B70180E390E02C8769D02C8522FF16C049
S113049021FF03C088E590E002C088E790E0B7013F
S11304A00CC0822F867851F021FD02C080E201C089
S11304B08BE227FD8DE2B70190E050D0A51430F413
S11304C0B70180E390E04AD05A94F8CFAA94F4019B
S11304D0EA0DF11D8081B70190E040D0A110F6CF64
S11304E0332009F45DCEB70180E290E037D03A942E
S11304F0F7CFF7018681978102C08FEF9FEF2C968B
S11305000FB6F894DEBF0FBECDBFDF91CF911F9120
S11305100F91FF90EF90DF90CF90BF90AF909F909E
S11305208F907F906F905F904F903F902F900895A1
S1130530FC010590615070400110D8F780959095AA
S11305408E0F9F1F0895FC016150704001900110AF
S1130550D8F7809590958E0F9F1F08950F931F9342
S1130560CF93DF93182F092FEB018B8181FD03C0FB
S11305708FEF9FEF20C082FF10C04E815F812C81DE
S11305803D81421753077CF4E881F9819F012F5F75
S11305903F4F39832883108306C0E885F985812F6E
S11305A00995892B29F72E813F812F5F3F4F3F8388
S11305B02E83812F902FDF91CF911F910F9108955A
S11305C0FA01AA27283051F1203181F1E8946F9380
S11305D06E7F6E5F7F4F8F4F9F4FAF4FB1E03ED026
S11305E0B4E03CD0670F781F891F9A1FA11D680FC4
S11305F0791F8A1F911DA11D6A0F711D811D911DF7
S1130600A11D20D009F468943F912AE0269F11246B
S11306103019305D3193DEF6CF010895462F4770CF
S1130620405D4193B3E00FD0C9F7F6CF462F4F702A
S1130630405D4A3318F0495D31FD4052419302D088
S1130640A9F7EACFB4E0A69597958795779567952E
S1130650BA95C9F700976105710508959B01AC012E
S11306600A2E06945795479537952795BA95C9F755
S1130670620F731F841F951FA01D0895F894FFCF68
S10D06806572726F720068656A000B
S9030000FC
