S01200006932635F636F6E6669672E737265633F
S113000045C000004BC0000049C0000047C00000CC
S113001045C0000043C0000041C000003FC00000D4
S11300203DC000003BC0000039C0000037C00000E4
S113003035C0000033C0000031C000002FC00000F4
S11300402DC000002BC0000029C0000027C0000004
S113005025C0000023C0000021C000001FC0000014
S11300601DC000001BC0000019C0000017C0000024
S113007015C0000013C0000011C000000FC0000034
S11300800DC000000BC0000009C0000011241FBEF9
S1130090CFEFD0E4DEBFCDBF86D033C2B1CF7894EA
S11300A01092B9008CE08093B80084E08093BC0087
S11300B00895ECEBF0E0108294EA90839081992308
S11300C0ECF79091B900987F9830A1F48093BB002D
S11300D084E88093BC00ECEBF0E080818823ECF7AB
S11300E09091B900987F983139F081E0903429F4E7
S11300F080E0089581E0089580E00895DACF0895BE
S11301008093BB0084E88093BC00ECEBF0E080813A
S11301108823ECF79091B900987F81E0983209F434
S113012080E0089584EC8093BC00ECEBF0E08081E7
S11301308823ECF78091BB000895882391F090E028
S1130140289AE3ECF9E03197F1F700C0000015B804
S1130150E3ECF9E03197F1F700C000009F5F9813DA
S1130160EFCF0895CF93DF93D62FC42FA2DF8D2F27
S1130170C7DF8C2FC5DF84E98093BC00DF91CF916A
S11301800895CF93DF93C82FD62F93DF8D2FB8DF39
S113019081E08C0FB3DFC6DF94E99093BC0090E05C
S11301A0DF91CF9108954F925F926F927F928F92D9
S11301B09F92AF92BF92CF92DF92EF92FF920F93F2
S11301C01F93CF93DF93CDB7DEB72C970FB6F89478
S11301D0DEBF0FBECDBF81E084B915B860DF1982E0
S11301E01A821B821C821D821E8247E460E282E323
S11301F0B9DF08EE13E0412C512C3201812C912CF3
S11302005401C12CD12C760168E282E3BADF8983E0
S113021069E282E3B6DF8A836AE282E3B2DF8B8338
S11302206BE282E3AEDF8C836CE282E3AADF8D8330
S11302306DE282E3A6DF8E838A818981C301B201E4
S11302406FD020E030E040E853E4D0D03DD07C874C
S11302506B878C818B81C501B40162D020E030E0D2
S113026040E853E4C3D030D07A8769878E818D818A
S1130270C701B60155D020E030E040E853E4B6D0E1
S113028023D078876F83015011090115110509F0F6
S1130290BBCF81E052DF80E090E02C960FB6F8945B
S11302A0DEBF0FBECDBFDF91CF911F910F91FF90A5
S11302B0EF90DF90CF90BF90AF909F908F907F9002
S11302C06F905F904F90089570D088F09F5790F092
S11302D0B92F9927B751A0F0D1F0660F771F881F67
S11302E0991F1AF0BA95C9F712C0B13081F077D0CE
S11302F0B1E0089574C0672F782F8827B85F39F06C
S1130300B93FCCF3869577956795B395D9F73EF4C5
S113031090958095709561957F4F8F4F9F4F08956D
S1130320E89409C097FB3EF490958095709561958B
S11303307F4F8F4F9F4F9923A9F0F92F96E9BB2741
S11303409395F695879577956795B795F111F8CFBD
S1130350FAF4BB0F11F460FF1BC06F5F7F4F8F4F28
S11303609F4F16C0882311F096E911C0772321F01E
S11303709EE8872F762F05C0662371F096E8862FB6
S113038070E060E02AF09A95660F771F881FDAF70D
S1130390880F9695879597F9089557FD9058440FBF
S11303A0551F59F05F3F71F04795880F97FB991FD0
S11303B061F09F3F79F0879508951216130614068D
S11303C0551FF2CF4695F1DF08C01616170618061A
S11303D0991FF1CF86957105610508940895E894F5
S11303E0BB2766277727CB0197F908950BD078C0F0
S11303F069D028F06ED018F0952309F05AC05FC078
S11304001124EECFCADFA0F3959FD1F3950F50E0EE
S1130410551F629FF001729FBB27F00DB11D639FB2
S1130420AA27F00DB11DAA1F649F6627B00DA11D58
S1130430661F829F2227B00DA11D621F739FB00DFE
S1130440A11D621F839FA00D611D221F749F33276E
S1130450A00D611D231F849F600D211D822F762F07
S11304606A2F11249F5750408AF0E1F088234AF004
S1130470EE0FFF1FBB1F661F771F881F9150504050
S1130480A9F79E3F510570F014C0AACF5F3FECF36B
S1130490983EDCF3869577956795B795F795E7953C
S11304A09F5FC1F7FE2B880F911D9695879597F94D
S11304B0089597F99F6780E870E060E008959FEFE2
S11304C080EC089500240A941616170618060906E7
S11304D0089500240A9412161306140605060895B6
S11304E0092E0394000C11F4882352F0BB0F40F43E
S11304F0BF2B11F460FF04C06F5F7F4F8F4F9F4F7E
S10905000895F894FFCFFA
S9030000FC
