:1000000045C0000060C000005EC000005CC0000091
:100010005AC0000058C0000056C0000054C0000084
:1000200052C0000050C000004EC000004CC0000094
:100030004AC0000048C0000046C0000044C00000A4
:1000400042C0000040C000003EC000003CC00000B4
:100050003AC0000038C0000036C0000034C00000C4
:1000600032C0000030C0000075C000002CC000008D
:100070002AC0000028C0000026C0000024C00000E4
:1000800022C0000020C000001EC0000011241FBEBE
:10009000CFEFD0E4DEBFCDBF11E0A0E0B1E0E2E9F8
:1000A000F2E000E00BBF02C007900D92A230B10752
:1000B000D9F721E0A2E0B1E001C01D92A730B2075C
:1000C000E1F7CFD0E4C09CCF2FE936E841E02150E2
:1000D00030404040E1F700C000008823C1F090E0CC
:1000E000289A2FE936E841E0215030404040E1F7BE
:1000F00000C0000015B82FE936E841E0215030403B
:100100004040E1F700C000009F5F9813E9CF0895D9
:100110001092B9008CE08093B80085E08093BC0019
:10012000089550930301409302018093040160936A
:10013000060181E08093000180EA8093BC0008956D
:10014000809304011092000180EA8093BC008091AA
:10015000050108951F920F920FB60F9211240BB64E
:100160000F922F933F934F935F936F937F938F9350
:100170009F93AF93BF93EF93FF938091B900887FD4
:10018000803241F140F48031B9F08831D9F08830C3
:1001900009F054C00AC0803409F445C0883509F418
:1001A00046C0883209F04AC01BC082E38093BB007E
:1001B00080E88093BC0042C083E38093BB0080E86A
:1001C0008093BC00809104018093BB0080E8809301
:1001D000BC0034C08FE078DF80E98093BC002EC083
:1001E000809100018823D9F0809102019091030150
:1001F00001979093030180930201809102019091F5
:100200000301892B21F480E98093BC0017C0809101
:1002100006018093BB0080E88093BC000FC080EA99
:100220008093BC000BC080EC8093BC0007C0809121
:10023000BB008093050180E98093BC00FF91EF91A2
:10024000BF91AF919F918F917F916F915F914F91EE
:100250003F912F910F900BBE0F900FBE0F901F90EC
:10026000189581E084B915B853DF789441E050E0E7
:1002700067E480E256DF80E263DF873419F485E0CB
:1002800023DF02C08AE020DF80E090E00895F89448
:02029000FFCF9E
:02029200010069
:00000001FF
