S01D0000737479726D6F64756C5F68616C765F6475706C65782E7372656319
S113000045C0000058C0000056C0000054C00000A5
S113001052C0000050C000004EC000004CC00000A0
S11300204AC0000048C0000046C0000044C00000B0
S113003042C0000040C000003EC000003CC00000C0
S11300403AC0000038C0000036C0000034C00000D0
S113005032C0000030C000002EC000002CC00000E0
S11300602AC0000028C0000026C0000024C00000F0
S113007022C0000020C000001EC000001CC0000000
S11300801AC0000018C0000016C0000011241FBED2
S1130090CFEFD0E4DEBFCDBF11E0A0E0B1E0ECE9EA
S11300A0F7E000E00BBF02C007900D92A231B10748
S11300B0D9F798D171C3A4CF92B1282F207F9F7014
S11300C0922B92B91398129A35E03A95F1F7000001
S11300D01298EFE1F3E03197F1F700C0000022B18C
S11300E0F0E18F9FC0011124922F9F70892B82B958
S11300F0129A35E03A95F1F7000012988FE39FE1E8
S11301000197F1F700C00000089592B1282F207FD5
S11301109F70922B92B9139A129A35E03A95F1F79F
S113012000001298EFE1F3E03197F1F700C000000E
S113013022B1F0E18F9FC0011124922F9F70892B6F
S113014082B9129A35E03A95F1F7000012988FE3DC
S11301509FE10197F1F700C0000008958FEF81B986
S11301602FEF89EF90E0215080409040E1F700C0EC
S1130170000083E3A1DF82E39FDF88E29DDF8CE060
S11301809BDF86E099DF81E097DF8FE39FE10197B2
S1130190F1F700C0000080E88FCF0895CF93DF937C
S11301A0EC018881882329F02196AFDF89918111A0
S11301B0FCCFDF91CF91089581E07EDF8FE39FE153
S11301C00197F1F700C0000080E876CF08951092FF
S11301D0C5001092C40086E08093C20080E1809341
S11301E0C1000895E0ECF0E0908195FFFDCF80938D
S11301F0C6000895E0ECF0E080818823ECF780915C
S1130200C6000895DF92EF92FF920F931F93CF934E
S1130210DF93C82FE62ED42E022F132F88E080936D
S1130220C100E0ECF0E0808180838FEFDBDF8FEFB3
S1130230D9DF8C2FD7DF82E08D0DD4DF8E2DD2DF76
S1130240E394E394ED0CEC0EDD2061F0C02FD12F8C
S1130250F12C8E018991C6DFF8018081E80EF394B8
S1130260FD10F7CFF8948E2D8095BCDFE0ECF0E024
S1130270808186FFFDCF80E18093C1007894DF9177
S1130280CF911F910F91FF90EF90DF9008951F93EE
S1130290CF93DF9300D01F92CDB7DEB7182FCB01D9
S11302A0BA0121E73DE34AE550E4B8D125D18EE116
S11302B089836A837B839E012F5F3F4F43E063E022
S11302C0812FA0DF0F900F900F90DF91CF911F919E
S11302D00895CF93DF9300D0CDB7DEB790E1998333
S11302E06A839E012F5F3F4F42E063E08BDF0F90F4
S11302F00F90DF91CF910895CF93DF9300D01F9299
S1130300CDB7DEB790E299836A837B839E012F5F2A
S11303103F4F43E063E076DF0F900F900F90DF9143
S1130320CF910895CF93DF9300D01F92CDB7DEB75E
S113033092E299836A837B839E012F5F3F4F43E060
S113034063E060DF0F900F900F90DF91CF910895DD
S11303500097B9F0299A2FEF33EC49E0215030404F
S11303604040E1F700C0000015B82FEF33EC49E03E
S1130370215030404040E1F700C000000197009751
S113038049F70895FF920F931F93CF93DF9332DFC2
S113039031DF30DF2FDFF82E2DDF82E08F15A8F458
S11303A0C0E0D0E000E010E025DF282F30E00C2E84
S11303B002C0220F331F0A94E2F7020F131FFA94AC
S11303C0289682E0F812F0CF02C000E010E012DFBD
S11303D081E090E0BDDFC801DF91CF911F910F91C3
S11303E0FF900895CF93DF9300D0CDB7DEB784B1EB
S11303F0836084B983E090E0ABDFE9DEAFDE61E0E7
S11304008EEF67DF6FEF73E08EEF8CDF62E870E0F2
S11304108EEF72DF2FEF87EA91E621508040904003
S1130420E1F700C0000084E2898382E08A83C4DEAD
S113043040E050E060EA72E486E029DF2FEF87EACB
S113044091E6215080409040E1F700C0000000E5B3
S113045010E0B801882777FD8095982F7BD0AB01F9
S1130460BC0186E014DF2FEF80E792E0215080404A
S11304709040E1F700C000009E012F5F3F4F42E033
S113048062E086E0BFDE7EDF7C012FEF86E791E04D
S1130490215080409040E1F700C000008DDE80E0F4
S11304A091E07CDE80EC08DEB70180E090E050D083
S11304B025E835E246E95EE3B1D019D0DC01CB0191
S11304C04AE06FE071E035D18FE091E067DE2FEF15
S11304D085ED96E0215080409040E1F700C0000097
S11304E00B5F1F4F023D110509F0B3CFA1CF04D01C
S11304F06894B1118DC0089570D088F09F5790F022
S1130500B92F9927B751A0F0D1F0660F771F881F34
S1130510991F1AF0BA95C9F712C0B13081F077D09B
S1130520B1E0089574C0672F782F8827B85F39F039
S1130530B93FCCF3869577956795B395D9F73EF493
S113054090958095709561957F4F8F4F9F4F08953B
S1130550E89409C097FB3EF4909580957095619559
S11305607F4F8F4F9F4F9923A9F0F92F96E9BB270F
S11305709395F695879577956795B795F111F8CF8B
S1130580FAF4BB0F11F460FF1BC06F5F7F4F8F4FF6
S11305909F4F16C0882311F096E911C0772321F0EC
S11305A09EE8872F762F05C0662371F096E8862F84
S11305B070E060E02AF09A95660F771F881FDAF7DB
S11305C0880F9695879597F9089557FD9058440F8D
S11305D0551F59F05F3F71F04795880F97FB991F9E
S11305E061F09F3F79F0879508951216130614065B
S11305F0551FF2CF4695F1DF08C0161617061806E8
S1130600991FF1CF86957105610508940895E894C2
S1130610BB2766277727CB0197F908950BD078C0BD
S113062069D028F06ED018F0952309F05AC05FC045
S11306301124EECFCADFA0F3959FD1F3950F50E0BC
S1130640551F629FF001729FBB27F00DB11D639F80
S1130650AA27F00DB11DAA1F649F6627B00DA11D26
S1130660661F829F2227B00DA11D621F739FB00DCC
S1130670A11D621F839FA00D611D221F749F33273C
S1130680A00D611D231F849F600D211D822F762FD5
S11306906A2F11249F5750408AF0E1F088234AF0D2
S11306A0EE0FFF1FBB1F661F771F881F915050401E
S11306B0A9F79E3F510570F014C0AACF5F3FECF339
S11306C0983EDCF3869577956795B795F795E7950A
S11306D09F5FC1F7FE2B880F911D9695879597F91B
S11306E0089597F99F6780E870E060E008959FEFB0
S11306F080EC089500240A941616170618060906B5
S1130700089500240A941216130614060506089583
S1130710092E0394000C11F4882352F0BB0F40F40B
S1130720BF2B11F460FF04C06F5F7F4F8F4F9F4F4B
S11307300895BB274A3031F4992322F4BDE2909501
S113074081959F4F01C0BB27FB015527AA27880F1E
S1130750991FAA1FA41710F0A41B83955051B9F731
S1130760A05DAA3308F0A95DA193009779F7B111B0
S1130770B1931192CB0100C0DC01FC01672F719190
S11307807723E1F7329704C07C916D937083629173
S10F0790AE17BF07C8F30895F894FFCF1C
S113079C50524553454E5420414E474C453A003037
S10507AC000047
S9030000FC
