S013000053656E736F725F6D61696E2E7372656393
S113000096C00000B1C00000AFC00000ADC0000049
S1130010ABC00000A9C00000A7C00000A5C000003C
S1130020A3C00000A1C000009FC000009DC000004C
S11300309BC0000099C0000097C0000095C000005C
S113004093C0000091C000008FC000008DC000006C
S11300508BC0000089C0000087C0000085C000007C
S113006083C0000081C0000096C000007DC0000075
S11300707BC0000079C0000077C0000075C000009C
S113008073C0000071C000006FC00000EB003101BC
S1130090310131013101310131013101F20031010C
S11300A0310131013101310131013101F9003101F5
S11300B031013101310131013101310101013101DC
S11300C031013101310131013101310103013101CA
S11300D0310131013101310131013101310131018C
S11300E0310131013101310131013101310131017C
S11300F0310131013101310131013101220131017B
S1130100310131013101310131013101310131015B
S11301103101310131013101310131012C01310150
S11301203101310131013101310131012601112443
S11301301FBECFEFD0E4DEBFCDBF11E0A0E0B1E041
S1130140EEE1F5E000E00BBF02C007900D92A23093
S1130150B107D9F721E0A2E0B1E001C01D92A830B7
S1130160B207E1F7B2D0D9C14BCF1092B90082E9FE
S11301708093B80085E08093BC00089585EA80935D
S1130180BC0010920101089585E98093BC0081E0D0
S11301908093010108951F920F920FB60F921124BC
S11301A00BB60F922F933F934F935F936F937F936D
S11301B08F939F93AF93BF93EF93FF938091B90075
S11301C0887F90E0FC013897E135F10508F049C0DB
S11301D0EA5BFF4F9CC182ED8093BB0085E880936E
S11301E0BC003FC083ED8093BB0085E88093BC00D6
S11301F038C0809105018093BB0085E88093BC00E2
S113020030C0C2DF2EC0809100018823C9F08091E4
S1130210020190910301892B11F4B6DF22C0809171
S113022007018093BB0085E88093BC0080910201A4
S1130230909103010197909303018093020111C0EF
S11302409DDF0FC085E88093BC000BC08091BB008C
S11302508093060199DF05C08091BB00809306015D
S113026093DFFF91EF91BF91AF919F918F917F9118
S11302706F915F914F913F912F910F900BBE0F9013
S11302800FBE0F901F901895909101019923E1F3EF
S11302905093030140930201809305016093070189
S11302A081E0809300016ACF089590910101992320
S11302B0E1F3809305011092000160DF8091010158
S11302C08823E1F3809106010895CF93DF9300D052
S11302D000D000D0CDB7DEB781E084B915B845DFD2
S11302E0789441E050E060E070E082E090E0CCDFA0
S11302F080E890E0DADF898381E890E0D6DF8A83C2
S11303006A81898170E0762F6627680F711D8827BE
S113031077FD8095982F0CD020E030E040E85EE334
S113032042D06B837C838D839E83E2CFE89409C0A3
S113033097FB3EF490958095709561957F4F8F4F14
S11303409F4F9923A9F0F92F96E9BB279395F6952A
S1130350879577956795B795F111F8CFFAF4BB0FA8
S113036011F460FF1BC06F5F7F4F8F4F9F4F16C00C
S1130370882311F096E911C0772321F09EE8872F96
S1130380762F05C0662371F096E8862F70E060E052
S11303902AF09A95660F771F881FDAF7880F9695CB
S11303A0879597F908950BD078C069D028F06ED05E
S11303B018F0952309F05AC05FC01124A2C07ED062
S11303C0A0F3959FD1F3950F50E0551F629FF00164
S11303D0729FBB27F00DB11D639FAA27F00DB11DBD
S11303E0AA1F649F6627B00DA11D661F829F222746
S11303F0B00DA11D621F739FB00DA11D621F839FCD
S1130400A00D611D221F749F3327A00D611D231FA2
S1130410849F600D211D822F762F6A2F11249F57F0
S113042050408AF0E1F088234AF0EE0FFF1FBB1F13
S1130430661F771F881F91505040A9F79E3F5105B2
S113044070F014C05EC05F3FECF3983EDCF3869519
S113045077956795B795F795E7959F5FC1F7FE2B5D
S1130460880F911D9695879597F9089597F99F6739
S113047080E870E060E008959FEF80EC0895002428
S11304800A941616170618060906089500240A94F5
S113049012161306140605060895092E0394000C7B
S11304A011F4882352F0BB0F40F4BF2B11F460FF0A
S11304B004C06F5F7F4F8F4F9F4F089557FD905833
S11304C0440F551F59F05F3F71F04795880F97FB14
S11304D0991F61F09F3F79F08795089512161306CE
S11304E01406551FF2CF4695F1DF08C016161706FD
S11304F01806991FF1CF8695710561050894089532
S1130500E894BB2766277727CB0197F90895EE0F68
S1110510FF1F0590F491E02D0994F894FFCF9D
S105051E0101D5
S9030000FC
