S013000053656E736F725F6D61696E2E7372656393
S113000096C00000B1C00000AFC00000ADC0000049
S1130010ABC00000A9C00000A7C00000A5C000003C
S1130020A3C00000A1C000009FC000009DC000004C
S11300309BC0000099C0000097C0000095C000005C
S113004093C0000091C000008FC000008DC000006C
S11300508BC0000089C0000087C0000085C000007C
S113006083C0000081C0000096C000007DC0000075
S11300707BC0000079C0000077C0000075C000009C
S113008073C0000071C000006FC00000EB003401B9
S1130090340134013401340134013401F2003401F7
S11300A0340134013401340134013401F9003401E0
S11300B034013401340134013401340101013401C7
S11300C034013401340134013401340106013401B2
S11300D03401340134013401340134013401340174
S11300E03401340134013401340134013401340164
S11300F03401340134013401340134012501340163
S11301003401340134013401340134013401340143
S11301103401340134013401340134012F01340138
S1130120340134013401340134013401290111242E
S11301301FBECFEFD0E4DEBFCDBF11E0A0E0B1E041
S1130140ECE3F3E000E00BBF02C007900D92A23095
S1130150B107D9F721E0A2E0B1E001C01D92A830B7
S1130160B207E1F7C8D0E8C04BCF1092B90082E9DA
S11301708093B80085E08093BC00089585EA80935D
S1130180BC0010920101089585E98093BC0081E0D0
S11301908093010108951F920F920FB60F921124BC
S11301A00BB60F922F933F934F935F936F937F936D
S11301B08F939F93AF93BF93EF93FF938091B90075
S11301C0887F90E0FC013897E135F10508F04CC0D8
S11301D0EA5BFF4FABC088E68093BB0085E8809361
S11301E0BC0042C089E68093BB0085E88093BC00D4
S11301F03BC0809105018093BB0085E88093BC00DF
S113020033C081E090E053D0BFDF2EC08091000165
S11302108823C9F08091020190910301892B11F484
S1130220B3DF22C0809107018093BB0085E88093EF
S1130230BC00809102019091030101979093030106
S11302408093020111C09ADF0FC085E88093BC003F
S11302500BC08091BB008093060196DF05C080919E
S1130260BB008093060190DFFF91EF91BF91AF91A6
S11302709F918F917F916F915F914F913F912F91BA
S11302800F900BBE0F900FBE0F901F90189590917A
S113029001019923E1F380930501109200016EDFBF
S11302A0809101018823E1F38091060108952FE9EB
S11302B036E841E0215030404040E1F700C0000002
S11302C08823C1F090E0289A2FE936E841E02150D4
S11302D030404040E1F700C0000015B82FE936E88F
S11302E041E0215030404040E1F700C000009F5FF2
S11302F09813E9CF0895CF93DF9300D0CDB7DEB73D
S113030081E084B915B831DF789485E0D0DF80E8E6
S113031090E0BDDF898383EC99E00197F1F700C099
S1130320000081E890E0B3DF8A83F1CFEE0FFF1F76
S10F03300590F491E02D0994F894FFCF9F
S105033C0101B9
S9030000FC
