S01D0000737479726D6F64756C5F68616C765F6475706C65782E7372656319
S113000045C0000060C000005EC000005CC000008D
S11300105AC0000058C0000056C0000054C0000080
S113002052C0000050C000004EC000004CC0000090
S11300304AC0000048C0000046C0000044C00000A0
S113004042C0000040C000003EC000003CC00000B0
S11300503AC0000038C0000036C0000034C00000C0
S113006032C0000030C000002EC000002CC00000D0
S11300702AC0000028C0000026C0000024C00000E0
S113008022C0000020C000001EC0000011241FBEBA
S1130090CFEFD0E4DEBFCDBF11E0A0E0B1E0EAE0F5
S11300A0F6E000E00BBF02C007900D92A030B1074C
S11300B0D9F721E0A0E0B1E001C01D92A030B20761
S11300C0E1F783D1A0C29CCF1092C5001092C40066
S11300D0E1ECF0E088E0808386E08093C20080E178
S11300E080830895E0ECF0E0908195FFFDCF80934C
S11300F0C6000895E0ECF0E080818823ECF780915D
S1130100C6000895CF93DF93F5DFF4DFF3DFD82F34
S1130110F1DFC82FEFDFC33020F0ECDFC150C23075
S1130120E1F7E8DF8D2FDF91CF910895DF92EF9211
S1130130FF920F931F93CF93DF93C82FE62ED42EF5
S1130140022F132F88E08093C100E0ECF0E080815F
S113015080838FEFC7DF8FEFC5DF8C2FC3DF82E093
S11301608D0DC0DF8E2DBEDFE394E394ED0CEC0E19
S1130170DD2061F0C02FD12FF12C8E018991B2DFE7
S1130180F8018081E80EF394FD10F7CFF8948E2DDA
S11301908095A8DFE0ECF0E0808186FFFDCF80E170
S11301A08093C1007894DF91CF911F910F91FF90BC
S11301B0EF90DF9008951F93CF93DF9300D01F92A9
S11301C0CDB7DEB7182FCB01BA0121E73DE34AE5ED
S11301D050E48ED138D18EE189836A837B839E017A
S11301E02F5F3F4F43E063E0812FA0DF0F900F901C
S11301F00F90DF91CF911F910895CF93DF9300D09B
S11302001F92CDB7DEB790E299836A837B839E0108
S11302102F5F3F4F43E063E089DF0F900F900F9013
S1130220DF91CF910895CF93DF9300D01F92CDB784
S1130230DEB792E299836A837B839E012F5F3F4FEF
S113024043E063E073DF0F900F900F90DF91CF9145
S113025008951F93CF93DF9300D01F92CDB7DEB7DD
S1130260182FCB01BA0121E73DE34AE550E440D120
S1130270EAD08EE189836A837B839E012F5F3F4F9F
S113028043E064E0812F52DF0F900F900F90DF91D5
S1130290CF911F910895CF93DF931F92CDB7DEB70F
S11302A019829E012F5F3F4F40E065E08EEF3EDFF5
S11302B00F90DF91CF91089540E050E066E173E440
S11302C080E0C7DF40E050E066E173E483E0C1DF33
S11302D040E050E066E173E486E0BBDF40E050E0DC
S11302E066E173E489E0B5DF40E050E066E173E481
S11302F08CE0AFDF40E050E066E173E48FE0A9DF1B
S113030040E050E064EB72E481E0A3DF40E050E0C1
S113031064EB72E484E09DDF40E050E064EB72E45F
S113032087E097DF40E050E062E573E48AE091DF24
S113033040E050E062E573E48DE08BDF40E050E0A4
S113034062E573E480E185DFA6DF40E050E066E625
S113035073E482E07EDF40E050E066E673E485E02B
S113036078DF40E050E066E673E488E072DF40E066
S113037050E06CE872E48BE06CDF40E050E06CE845
S113038072E48EE066DF40E050E06CE872E481E104
S113039060DF81CF08950097B9F0299A2FEF33ECED
S11303A049E0215030404040E1F700C0000015B85A
S11303B02FEF33EC49E0215030404040E1F700C0DA
S11303C000000197009749F7089584B1836084B9C8
S11303D082E090E0E0DF78DE6FEF73E08EEF23DF02
S11303E064E670E08EEF09DF67DF2FEF83ED90E3C3
S11303F0215080409040E1F700C0000040E050E010
S113040068E473E483E0D7DE7DDE90E0C4DF2FEFA1
S113041087EA91E6215080409040E1F700C0000057
S113042040E050E066E173E483E0C5DE6BDE90E01B
S1130430B2DF2FEF87EA91E6215080409040E1F748
S113044000C00000DBCF33D088F09F5790F0B92F65
S11304509927B751A0F0D1F0660F771F881F991F15
S11304601AF0BA95C9F712C0B13081F03AD0B1E0B0
S1130470089537C0672F782F8827B85F39F0B93FC0
S1130480CCF3869577956795B395D9F73EF4909517
S11304908095709561957F4F8F4F9F4F089557FDBD
S11304A09058440F551F59F05F3F71F04795880FDE
S11304B097FB991F61F09F3F79F087950895121675
S11304C013061406551FF2CF4695F1DF08C0161621
S11304D017061806991FF1CF8695710561050894D2
S11304E00895E894BB2766277727CB0197F90895E9
S11304F00BD078C069D028F06ED018F0952309F09D
S11305005AC05FC01124EECFCADFA0F3959FD1F388
S1130510950F50E0551F629FF001729FBB27F00DAD
S1130520B11D639FAA27F00DB11DAA1F649F662702
S1130530B00DA11D661F829F2227B00DA11D621F51
S1130540739FB00DA11D621F839FA00D611D221F0B
S1130550749F3327A00D611D231F849F600D211DEF
S1130560822F762F6A2F11249F5750408AF0E1F092
S113057088234AF0EE0FFF1FBB1F661F771F881FDB
S113058091505040A9F79E3F510570F014C0AACF76
S11305905F3FECF3983EDCF3869577956795B795C6
S11305A0F795E7959F5FC1F7FE2B880F911D9695F0
S11305B0879597F9089597F99F6780E870E060E060
S11305C008959FEF80EC089500240A9416161706E8
S11305D018060906089500240A9412161306140630
S11305E005060895092E0394000C11F4882352F093
S11305F0BB0F40F4BF2B11F460FF04C06F5F7F4F4B
S10D06008F4F9F4F0895F894FFCF29
S9030000FC
