S01D0000737479726D6F64756C5F68616C765F6475706C65782E7372656319
S113000045C0000058C0000056C0000054C00000A5
S113001052C0000050C000004EC000004CC00000A0
S11300204AC0000048C0000046C0000044C00000B0
S113003042C0000040C000003EC000003CC00000C0
S11300403AC0000038C0000036C0000034C00000D0
S113005032C0000030C000002EC000002CC00000E0
S11300602AC0000028C0000026C0000024C00000F0
S113007022C0000020C000001EC000001CC0000000
S11300801AC0000018C0000016C0000011241FBED2
S1130090CFEFD0E4DEBFCDBF11E0A0E0B1E0E6EAEF
S11300A0F8E000E00BBF02C007900D92A431B10745
S11300B0D9F7D2D2F6C3A4CF92B1282F207F9F7054
S11300C0922B92B91398129A35E03A95F1F7000001
S11300D01298EFE1F3E03197F1F700C0000022B18C
S11300E0F0E18F9FC0011124922F9F70892B82B958
S11300F0129A35E03A95F1F7000012988FE39FE1E8
S11301000197F1F700C00000089592B1282F207FD5
S11301109F70922B92B9139A129A35E03A95F1F79F
S113012000001298EFE1F3E03197F1F700C000000E
S113013022B1F0E18F9FC0011124922F9F70892B6F
S113014082B9129A35E03A95F1F7000012988FE3DC
S11301509FE10197F1F700C0000008958FEF81B986
S11301602FEF89EF90E0215080409040E1F700C0EC
S1130170000083E3A1DF82E39FDF88E29DDF8CE060
S11301809BDF86E099DF81E097DF8FE39FE10197B2
S1130190F1F700C0000080E88FCF0895CF93DF937C
S11301A0EC018881882329F02196AFDF89918111A0
S11301B0FCCFDF91CF91089581E07EDF8FE39FE153
S11301C00197F1F700C0000080E876CF08951092FF
S11301D0C5001092C40086E08093C20080E1809341
S11301E0C1000895E0ECF0E0908195FFFDCF80938D
S11301F0C6000895DF92EF92FF920F931F93CF935F
S1130200DF93C82FE62ED42E022F132F88E080937D
S1130210C100E0ECF0E0808180838FEFE3DF8FEFBB
S1130220E1DF8C2FDFDF82E08D0DDCDF8E2DDADF66
S1130230E394E394ED0CEC0EDD2061F0C02FD12F9C
S1130240F12C8E018991CEDFF8018081E80EF394C0
S1130250FD10F7CFF8948E2D8095C4DFE0ECF0E02C
S1130260808186FFFDCF80E18093C1007894DF9187
S1130270CF911F910F91FF90EF90DF900895CF934E
S1130280DF9300D0CDB7DEB790E199836A839E01F6
S11302902F5F3F4F42E063E0ADDF0F900F90DF919F
S11302A0CF910895CF93DF9300D01F92CDB7DEB7DF
S11302B090E299836A837B839E012F5F3F4F43E0E3
S11302C063E098DF0F900F900F90DF91CF91089526
S11302D0CF93DF9300D01F92CDB7DEB792E299831C
S11302E06A837B839E012F5F3F4F43E063E082DF9D
S11302F00F900F900F90DF91CF9108951F93CF939C
S1130300DF9300D01F92CDB7DEB7182FCB01BA010F
S113031021E73DE34AE550E439D2E3D18EE1898314
S11303206A837B839E012F5F3F4F43E064E0812F0C
S113033061DF0F900F900F90DF91CF911F9108957F
S1130340CF93DF931F92CDB7DEB719829E012F5F43
S11303503F4F40E065E08EEF4DDF0F90DF91CF918E
S1130360089540E050E066E173E480E0C7DF40E0D8
S113037050E066E173E483E0C1DF40E050E066E111
S113038073E486E0BBDF40E050E066E173E489E0BB
S1130390B5DF40E050E066E173E48CE0AFDF40E0BD
S11303A050E066E173E48FE0A9DF40E050E064EBE5
S11303B072E481E0A3DF40E050E064EB72E484E0A7
S11303C09DDF40E050E064EB72E487E097DF40E0BB
S11303D050E062E573E48AE091DF40E050E062E5DA
S11303E073E48DE08BDF40E050E062E573E480E18C
S11303F085DFA6DF40E050E066E673E482E07EDF5E
S113040040E050E066E673E485E078DF40E050E0E9
S113041066E673E488E072DF40E050E06CE872E482
S11304208BE06CDF40E050E06CE872E48EE066DF65
S113043040E050E06CE872E481E160DF81CF089530
S113044040E050E06BE173E480E058DF40E050E0CE
S11304506CE872E481E052DF40E050E062E873E46B
S113046082E04CCF089540E050E061E173E480E025
S113047045DF40E050E066E173E481E03FDF40E0C7
S113048050E06CE573E482E039CF089540E050E039
S11304906BE173E48FE032DF40E050E06EE373E43D
S11304A080E12CDF40E050E068EC72E481E126CF8B
S11304B0089540E050E061E173E48FE01FDF40E025
S11304C050E067E873E480E119DF40E050E060E762
S11304D072E481E113CF089540E050E061E173E4F8
S11304E083E00CDF40E050E062ED72E484E006DF7C
S11304F040E050E066E673E485E000CF089540E014
S113050050E06BE173E483E0F9DE40E050E066E93B
S113051072E484E0F3DE40E050E062E873E485E0F6
S1130520EDCE089540E050E061E173E48CE0E6DE56
S113053040E050E061E673E48DE0E0DE40E050E04E
S11305406CE872E48EE0DACE089540E050E06BE1AE
S113055073E48CE0D3DE40E050E063E473E48DE0C8
S1130560CDDE40E050E068EC72E48EE0C7CE089542
S113057040E050E06BE173E486E0C0DE40E050E030
S11305806CED72E487E0BADE40E050E06CE573E4C1
S113059088E0B4CE089540E050E061E173E486E081
S11305A0ADDE40E050E06AEA72E487E0A7DE40E0B6
S11305B050E060E773E488E0A1CE089540E050E0A5
S11305C06BE173E489E09ADE40E050E066E673E4B0
S11305D08AE094DE40E050E060E772E48BE08ECE87
S11305E0089540E050E061E173E489E087DE40E093
S11305F050E06DE473E48AE081DE40E050E060EABC
S113060072E48BE07BCE0895B3DF8CDF19DFD6DF95
S113061063DF3CCF0895BFDF98DF25DFE2DF6FDFC4
S113062048CF08950097B9F0299A2FEF33EC49E0A9
S1130630215030404040E1F700C0000015B82FEFD2
S113064033EC49E0215030404040E1F700C0000065
S11306500197009749F7089584B1836084B983E0D2
S113066090E0E0DFB4DD7ADD61E08EEF08DE6FEF6D
S113067073E08EEF2DDE62E870E08EEF13DE2FEF75
S113068087EA91E6215080409040E1F700C00000E5
S113069093DD80E091E082DD64DE2FEF8BE792E969
S11306A0215080409040E1F700C0000085DD8CE0DF
S11306B091E074DDA9DF44DE2FEF89E698E1215053
S11306C080409040E1F700C00000A5DF39DE2FEF45
S11306D089E698E1215080409040E1F700C0000095
S11306E0E9CF33D088F09F5790F0B92F9927B751AD
S11306F0A0F0D1F0660F771F881F991F1AF0BA95E2
S1130700C9F712C0B13081F03AD0B1E0089537C0D2
S1130710672F782F8827B85F39F0B93FCCF38695D7
S113072077956795B395D9F73EF490958095709534
S113073061957F4F8F4F9F4F089557FD9058440FF9
S1130740551F59F05F3F71F04795880F97FB991F2C
S113075061F09F3F79F087950895121613061406E9
S1130760551FF2CF4695F1DF08C016161706180676
S1130770991FF1CF86957105610508940895E89451
S1130780BB2766277727CB0197F908950BD078C04C
S113079069D028F06ED018F0952309F05AC05FC0D4
S11307A01124EECFCADFA0F3959FD1F3950F50E04B
S11307B0551F629FF001729FBB27F00DB11D639F0F
S11307C0AA27F00DB11DAA1F649F6627B00DA11DB5
S11307D0661F829F2227B00DA11D621F739FB00D5B
S11307E0A11D621F839FA00D611D221F749F3327CB
S11307F0A00D611D231F849F600D211D822F762F64
S11308006A2F11249F5750408AF0E1F088234AF060
S1130810EE0FFF1FBB1F661F771F881F91505040AC
S1130820A9F79E3F510570F014C0AACF5F3FECF3C7
S1130830983EDCF3869577956795B795F795E79598
S11308409F5FC1F7FE2B880F911D9695879597F9A9
S1130850089597F99F6780E870E060E008959FEF3E
S113086080EC089500240A94161617061806090643
S1130870089500240A941216130614060506089512
S1130880092E0394000C11F4882352F0BB0F40F49A
S1130890BF2B11F460FF04C06F5F7F4F8F4F9F4FDA
S10908A00895F894FFCF57
S11308A65374616E64696E672075700057616C6B72
S10708B6696E6700FC
S9030000FC
